:100000000C9462000C948A000C948A000C948A0070
:100010000C948A000C948A000C948A000C948A0038
:100020000C948A000C948A000C948A000C948A0028
:100030000C948A000C948A000C948A000C948A0018
:100040000C9458080C948A000C948A000C948A0032
:100050000C948A000C948A000C948A000C948A00F8
:100060000C94A2080C948A000000000024002700D1
:100070002A0000000000250028002B0000000000DE
:1000800023002600290004040404040404040202DA
:100090000202020203030303030301020408102007
:1000A0004080010204081020010204081020000012
:1000B0000008000201000003040700000000000027
:1000C0000000C10911241FBECFEFD8E0DEBFCDBFB5
:1000D00023E0A8EDB1E001C01D92A832B207E1F71C
:1000E00011E0A0E0B1E0E8E3FDE102C005900D926F
:1000F000A83DB107D9F710E0C2E6D0E004C02197CF
:10010000FE010E94A20CC136D107C9F70E94380A2D
:100110000C949A0E0C94000096E0899FD001112453
:10012000AB54BD4F90967C936E935F9791E0919600
:100130009C939197E0912203F091230390912103E6
:10014000992339F0309751F0811108C08091D10284
:100150000994309719F05C968C91FACF0895CF925C
:10016000DF92EF92FF920F931F9396E0899FF00129
:100170001124EB54FD4F11A2278D30A12130310500
:1001800051F178F02230310509F451C023303105A6
:1001900009F452C01F910F91FF90EF90DF90CF9024
:1001A00008956623B9F361E070E00E948C002FB7D8
:1001B000F8948091990290919A02A0919B02B0913B
:1001C0009C022FBF80930D0390930E03A0930F0307
:1001D000B0931003DFCF9FB7F894C0909902D090EE
:1001E0009A02E0909B02F0909C029FBF00910D0349
:1001F00010910E0320910F0330911003C01AD10A01
:10020000E20AF30A00911F031091200330E020E07E
:100210000C151D052E053F0550F462E070E01F919E
:100220000F91FF90EF90DF90CF900C948C006111B4
:10023000B1CF63E070E0F3CF70E060E0F0CF8330E7
:1002400081F028F4813099F08230A9F00895873048
:10025000A9F08830C9F08430B1F4809180008F7D9E
:1002600003C0809180008F7780938000089584B5CB
:100270008F7784BD089584B58F7DFBCF8091B000CA
:100280008F778093B00008958091B0008F7DF9CF73
:10029000CF93DF93282F30E0F901E255FF4F84918F
:1002A000F901E656FF4FD491F901EA57FF4FC49187
:1002B000CC23A1F081110E941F01EC2FF0E0EE0F82
:1002C000FF1FE458FF4FA591B491EC91ED2381E01D
:1002D00090E009F480E0DF91CF91089580E090E014
:1002E000FACF862F0C9448011F93CF93DF93282FCA
:1002F00030E0F901E255FF4F8491F901E656FF4FD6
:10030000D491F901EA57FF4FC491CC23A9F0162FDD
:1003100081110E941F01EC2FF0E0EE0FFF1FEE583D
:10032000FF4FA591B4918FB7F894EC91111108C0CB
:10033000D095DE23DC938FBFDF91CF911F9108957D
:10034000DE2BF8CF862F642F0C947401CF93DF93AC
:1003500090E0FC01E656FF4F24918A579F4FFC0125
:1003600084918823C9F090E0880F991FFC01E85917
:10037000FF4FA591B491FC01EE58FF4FC591D49168
:1003800061110DC09FB7F8948C91209582238C93B6
:100390008881282328839FBFDF91CF910895623001
:1003A00051F49FB7F8943C91822F809583238C93CE
:1003B000E8812E2BEFCF8FB7F894EC912E2B2C9356
:1003C0008FBFEACF862F642F0C94A6016F927F9285
:1003D0008F929F92AF92BF92CF92DF92EF92FF9255
:1003E0000F931F93CF93DF9381E0809321038FB707
:1003F000F8944091990250919A0260919B027091F9
:100400009C028FBF8091110390911203A09113035E
:10041000B0911403481B590B6A0B7B0B80911D0391
:1004200090911E03B0E0A0E084179507A607B707D8
:1004300008F01DC1C0E080911B03C81760F4E09173
:100440001703F0911803EC0FF11D62E080810E9408
:10045000A601CF5FF0CF712C812C912C5401839495
:1004600080911C03781608F05FC0072D10E0E09122
:100470001903F0911A03E00FF11F61E080810E94DF
:10048000A601E0911903F0911A03E00FF11F60E05B
:1004900080810E947401D501C401072C04C0880F1B
:1004A000991FAA1FBB1F0A94D2F76C017C01E0942C
:1004B000F094612C80911B036816F8F4C62DD0E0EF
:1004C000E0911703F0911803EC0FFD1F80810E944B
:1004D00048012496CC0FDD1FCB54DD4F892B41F40E
:1004E000888199818C299D29998388836394E2CF9F
:1004F000888199818E219F21F7CFE0911903F09196
:100500001A03E00FF11F61E080810E947401809165
:10051000190390911A03080F191F60E0F8018081F8
:100520000E94A60173949CCFC5EBD2E0FE018FEF31
:100530009FEF278D30A1232B21F4148E968F858F6A
:1005400011A2369622E0E13FF20799F7F12C96E0EE
:10055000D92E80911B03F81608F050C0E12C0F2D06
:1005600010E0000F111F03541D4F20911C03E216D1
:1005700008F042C0F801608171810E2C02C07695AE
:1005800067950A94E2F7F29E900111242E0D311D19
:10059000E5EBF2E080E0458D568D2417350709F430
:1005A0006AC08F5F36968A30B1F760FF23C0E5EBF3
:1005B000F2E090E080E0448D411117C0E091150316
:1005C000F0911603E20FF31F4081D89EF001D99EEF
:1005D000F00D1124EB54FD4F448F368F258F10A260
:1005E000178E61E00E94AF0005C0019636968A30F2
:1005F000910509F7E394B9CFF394ABCF80E099A1CB
:100600009111892F2696F2E0C13FDF07C1F79FB70E
:10061000F8944091990250919A0260919B027091D6
:100620009C029FBF409311035093120360931303E6
:10063000709314038823D9F08091D6028823B9F0EF
:100640008091D4029091D502019789F48091D102D2
:10065000DF91CF911F910F91FF90EF90DF90CF909E
:10066000BF90AF909F908F907F906F900895109261
:10067000210380E0EDCF6170B5CFE82FF0E0E255C7
:10068000FF4FE491E33011F138F4E130A9F0E230AA
:10069000C1F060E00C947401E73011F1E83041F1F1
:1006A000E430B9F78091800080628093800070937D
:1006B0008B0060938A00089584B5806884BD67BD0F
:1006C000089584B5806284BD68BD089580918000DE
:1006D00080688093800070938900609388000895FB
:1006E0008091B00080688093B0006093B30008955B
:1006F0008091B00080628093B0006093B400089550
:100700003FB7F8948091950290919602A09197023C
:10071000B091980226B5A89B05C02F3F19F001960D
:10072000A11DB11D3FBFBA2FA92F982F8827BC014B
:10073000CD01620F711D811D911D42E0660F771F73
:10074000881F991F4A95D1F708958F929F92AF9273
:10075000BF92CF92DF92EF92FF924B015C010E9419
:1007600080036B017C010E9480036C197D098E0956
:100770009F09683E734081059105A8F321E0821A24
:100780009108A108B10888EEC80E83E0D81EE11CCC
:10079000F11C81149104A104B10429F7FF90EF909A
:1007A000DF90CF90BF90AF909F908F900895089565
:1007B0000895AF92BF92CF92DF92EF92FF920F9384
:1007C0001F93CF93DF936C017B018B01040F151FE7
:1007D000EB015E01AE18BF08C017D10759F069914F
:1007E000D601ED91FC910190F081E02DC6010995B3
:1007F000892B79F7C501DF91CF911F910F91FF9060
:10080000EF90DF90CF90BF90AF900895FC014481AE
:1008100055816081718189EA92E00C94D903089531
:1008200020911902260F3327331F21323105ECF4B2
:1008300020916202FC0190E080E0243069F082E0C7
:100840000895A09119022191AC0147505E4FA40F69
:10085000B52FB11D2C930196861798F3809119023C
:10086000680F6093190280E0089581E00895109266
:10087000620281E08093610210923C0261E082E1B9
:100880000E94740161E083E10E947401E9EBF0E0F1
:1008900080818E7F808380818D7F808388E48093B8
:1008A000B80085E48093BC000895CF93DF9391E076
:1008B0009093F8018823B9F0C091B800D091BA00A4
:1008C0008091BC008A7B8093BC0060E082E10E9442
:1008D000740160E083E10E9474010E943704D093A8
:1008E000BA00C093B800DF91CF9108950895E091C8
:1008F000910280919002E81730F4F0E0E852FE4F48
:10090000808190E008958FEF9FEF0895909191027C
:10091000809190022FEF3FEF981748F4E92FF0E015
:10092000E852FE4F208130E09F5F90939102C90111
:1009300008958091900290919102891B990B0895DE
:10094000CF92DF92EF92FF920F931F93CF93DF939B
:100950007C01CB018A0120916802222389F0EB01FE
:100960006B01C40ED51ECC15DD0569F06991D70168
:10097000ED91FC910190F081E02DC7010995F3CF35
:10098000642F0E941004C801DF91CF911F910F9135
:10099000FF90EF90DF90CF900895CF93DF931F9259
:1009A000CDB7DEB76983209168022223F9F0209148
:1009B0008E02203258F021E030E0FC0133832283A4
:1009C00090E080E00F90DF91CF91089580918F02A9
:1009D000E82FF0E0E759FD4F998190838F5F809376
:1009E0008F0280938E0281E090E0ECCF61E0CE0137
:1009F00001960E941004F7CFCF92DF92EF92FF9200
:100A00000F931F93CF93DF93FC01C48121E02093C8
:100A10006802C093890210928F0210928E02838521
:100A2000682B8DE992E00E94CD04D0918E02D132E4
:100A300008F092C00E9480036B017C0180916202E9
:100A4000811165C082E08093620281E0809361023F
:100A50008FEF8093600210925F02D0935E02A9E64E
:100A6000B2E0EEE3F2E080E0D81385C010923D02E0
:100A700080913D02CC0FC82BC0933D0280913C0277
:100A8000813009F07CC010923C020E9480036B010F
:100A90007C0180913D028093BB0080916402909123
:100AA0006502A0916602B0916702892B8A2B8B2B7D
:100AB00099F00E94800300916402109165022091D8
:100AC0006602309167026C197D098E099F0906172D
:100AD000170728073907E0F18091BC0083FDD9CFC3
:100AE00085EC8093BC000E9480036B017C018091A7
:100AF0006202823009F445C0809160028F3F61F14B
:100B000080916002803241F18091600225C0809125
:100B1000640290916502A0916602B0916702892BF0
:100B20008A2B8B2B09F48ACF0E94800300916402E8
:100B30001091650220916602309167026C197D095F
:100B40008E099F09061717072807390708F076CF7F
:100B5000809163020E94550410928F0210928E02BF
:100B600010926802DF91CF911F910F91FF90EF904B
:100B7000DF90CF9008959D9191938F5F75CF85EE13
:100B8000B0CF8091640290916502A0916602B0910D
:100B90006702892B8A2B8B2B09F4A9CF0E94800333
:100BA0000091640210916502209166023091670203
:100BB0006C197D098E099F09061717072807390741
:100BC00008F095CFC5CF90E080E0089587E00E94BF
:100BD0004801892B91F488E00E944801892B79F41F
:100BE00089E00E944801892B61F48AE00E94480153
:100BF000892B49F480919302089581E3089582E35B
:100C0000089583E3089584E30895FC010190002092
:100C1000E9F73197AF01481B590BBC0189EA92E013
:100C20000C94D9030F931F93CF938C01C62F0E946E
:100C3000FC046C2F6460C8010E94FC046C2F6B7F65
:100C4000C8010E94FC0483EC90E00197F1F7CF917A
:100C50001F910F9108950F931F93CF93DF938C01F2
:100C6000D62FC42F607F642B0E94120680E1D89F8C
:100C7000B00111246C2BC801DF91CF911F910F910E
:100C80000C94120640E061E089EA92E00E942B0693
:100C90008BE39FE10197F1F70895CF93DF93CDB7F1
:100CA000DEB728970FB6F894DEBF0FBECDBF98E031
:100CB000E9E1F1E0DE01119601900D929A95E1F7DC
:100CC0009091B102961708F46FEF262F30E0220FB3
:100CD000331F41E050E04C0F5D1F240F351FF90119
:100CE0006081680F606840E089EA92E028960FB65C
:100CF000F894DEBF0FBECDBFDF91CF910C942B06D1
:100D000041E00E942B0681E090E008950F931F932D
:100D1000CF93DF93EC0188819981009759F02A8164
:100D20003B812617370730F081E0DF91CF911F918B
:100D30000F9108958B016F5F7F4F0E94CD0D00973B
:100D400059F0998388831B830A832C813D81232B4F
:100D500059F7FC011082E8CF80E0E7CFEF92FF92D5
:100D60000F931F93CF93DF936115710541F480E0DA
:100D7000DF91CF911F910F91FF90EF900895411552
:100D80005105B1F07B01EC010C811D81040F151F91
:100D9000B8010E948606882351F3288139818C810D
:100DA0009D81B701820F931F0E94930E1D830C83B8
:100DB00081E0DECFCF93DF93EC01888199810097AA
:100DC00011F00E94440D198218821D821C821B8220
:100DD0001A82DF91CF910895CF93DF93EC011982AE
:100DE00018821B821A821D821C8263E070E00E94BE
:100DF0008606811105C0CE01DF91CF910C94DA06F1
:100E000083E090E09D838C8369E471E0888199811F
:100E1000DF91CF910C94930ECF93DF93EC01FB0104
:100E200001900020E9F73197AF01461B570B0E9454
:100E3000AE06811103C0CE010E94DA06CE01DF9119
:100E4000CF910895CF93DF93EC01FB01448155814D
:100E5000608171810E94AE06811103C0CE010E94A3
:100E6000DA06CE01DF91CF910895CF92DF92EF9213
:100E7000FF920F931F93CF93DF9300D0CDB7DEB7D0
:100E80008C01FC011182108213821282158214825D
:100E900069831A82CE0101966C01FC010190002049
:100EA000E9F731977F01E81AF90AB701C8010E94F2
:100EB000860681110EC0C8010E94DA060F900F90BD
:100EC000DF91CF911F910F91FF90EF90DF90CF9026
:100ED0000895F801F582E482B601808191810E9433
:100EE000930EECCFFC0180819181009711F00C945E
:100EF000440D0895CF93DF93CDB7DEB72C970FB68F
:100F0000F894DEBF0FBECDBF60E083E00E944D06C7
:100F10008DE491E00E94050661E082E00E944D06AA
:100F2000809193028133F1F461E3CE0107960E9430
:100F30003507CE0101960E94EC06BE01695F7F4F26
:100F4000CE0101960E94220768E571E00E940C071D
:100F50000E940604CE0101960E947207CE010796F8
:100F60000E947207809193028233F1F462E3CE0112
:100F700007960E943507CE0101960E94EC06BE013D
:100F8000695F7F4FCE0101960E94220761E671E002
:100F90000E940C070E940604CE0101960E9472076F
:100FA000CE0107960E947207809193028333F1F479
:100FB00063E3CE0107960E943507CE0101960E9499
:100FC000EC06BE01695F7F4FCE0101960E942207A9
:100FD00061E671E00E940C070E940604CE010196B2
:100FE0000E947207CE0107960E94720760919302D9
:100FF0006433ECF0CE0107960E943507CE010196CE
:101000000E94EC06BE01695F7F4FCE0101960E94EF
:10101000220761E671E00E940C070E940604CE01DF
:1010200001960E947207CE0107960E9472072C96C5
:101030000FB6F894DEBF0FBECDBFDF91CF910895FC
:1010400085ED8093BC008091640290916502A0912F
:101050006602B09167020796A11DB11D23E0B69507
:10106000A795979587952A95D1F72091BC0024FDE7
:1010700003C010926202089540916402509165028B
:101080006091660270916702452B462B472B69F3EE
:101090000097A105B10541F02AE22A95F1F700C0B9
:1010A0000197A109B109E1CF809163020C94550425
:1010B0001F920F920FB60F9211242F933F938F938D
:1010C0009F93AF93BF938091990290919A02A091C0
:1010D0009B02B0919C023091940223E0230F2D37A4
:1010E00058F50196A11DB11D209394028093990299
:1010F00090939A02A0939B02B0939C0280919502D8
:1011000090919602A0919702B09198020196A11D2C
:10111000B11D8093950290939602A0939702B0938D
:101120009802BF91AF919F918F913F912F910F9016
:101130000FBE0F901F90189526E8230F0296A11D51
:10114000B11DD2CF1F920F920FB60F9211242F9381
:101150003F934F935F936F937F938F939F93AF933F
:10116000BF93EF93FF938091B900887F803609F495
:101170004AC0F0F5883209F4A7C018F5803109F4A7
:101180009BC0B8F4882309F4F9C0883009F494C0EE
:10119000FF91EF91BF91AF919F918F917F916F914F
:1011A0005F914F913F912F910F900FBE0F901F9025
:1011B0001895883109F488C0803251F78093600215
:1011C00014C0803409F49DC040F48033B9F38833EF
:1011D000F9F68093600285ECB0C0803509F485C0D3
:1011E000883509F496C0883499F60E942008D0CF3B
:1011F000883909F48CC038F5883729F050F48836DE
:1012000011F0803729F683E08093620210923B024E
:1012100057C0883809F47BC0803919F0803809F04C
:10122000B7CF80913B02803208F071C0E0913B0261
:1012300081E08E0F80933B028091BB00F0E0E55E81
:10124000FD4F80833DC0803B39F0E0F4803A09F4E3
:1012500079C0883A09F09CCF84E0809362021092B2
:101260001A0210921902E0918C02F0918D020995F8
:101270008091190281110FC081E0809319021092B0
:10128000F90109C0803C09F4A6CF883C09F4A3CF3A
:10129000883B09F07DCFE0911A0281E08E0F8093A8
:1012A0001A02F0E0E750FE4F80818093BB009091DE
:1012B0001A028091190229C080913D028093BB00DF
:1012C00085EC8093BC0064CF90915F0280915E02B8
:1012D000981758F5E0915F0281E08E0F80935F02CE
:1012E000F0E0E25CFD4F8081E9CFE0915F0281E0B8
:1012F0008E0F80935F028091BB00F0E0E25CFD4FB7
:10130000808390915F0280915E029817C8F285E811
:10131000D8CFE0915F0281E08E0F80935F028091D1
:10132000BB00F0E0E25CFD4F80838091610281119F
:101330005CCF81E080933C0284EA8093BC001092F1
:10134000620226CF85EC8093BC00109262028091ED
:101350003B02803230F4E0913B02F0E0E55EFD4F6D
:10136000108260913B0270E0E0918A02F0918B0262
:101370008BE192E0099510923B020ACF1092600235
:1013800034CF1092A00210929F0288EE93E0A0E06A
:10139000B0E08093A1029093A202A093A302B09325
:1013A000A40285E291E090939E0280939D021092A8
:1013B000B7021092BB021092BA021092BC0283E4F0
:1013C00091E09093B6028093B502E1EDF2E01082D5
:1013D000148213821582369683E0ED30F807B9F750
:1013E00083E091E0909318038093170380E091E0ED
:1013F00090931A038093190384E080931B0383E086
:1014000080931C0387E091E090931603809315036B
:101410008AE090E090931E0380931D0384EF91E097
:101420009093200380931F031092230310922203B2
:1014300010921103109212031092130310921403CE
:10144000109221031092AC021092AB0287E391E05C
:101450009093AA028093A90287E28093AD0280E173
:101460008093B20282E08093B3021092B402089596
:10147000CF93DF9300D000D0CDB7DEB7789484B59A
:10148000826084BD84B5816084BD85B5826085BD80
:1014900085B5816085BD80916E00816080936E000E
:1014A0001092810080918100826080938100809100
:1014B00081008160809381008091800081608093B1
:1014C00080008091B10084608093B1008091B00071
:1014D00081608093B00080917A00846080937A006C
:1014E00080917A00826080937A0080917A00816096
:1014F00080937A0080917A00806880937A001092BD
:10150000C100109291021092900210928F021092DC
:101510008E020E94370487ED93E090938D028093B2
:101520008C0288ED93E090938B0280938A02109254
:10153000AE028091B302823018F098E09093AE0230
:101540008093B10262E370E080E090E00E94A50326
:101550006091B40289EA92E00E94FC0468EE73E0B4
:1015600080E090E00E94A50360E389EA92E00E9497
:1015700012060BE416E4C8010197F1F760E389EA6B
:1015800092E00E941206C8010197F1F760E389EA30
:1015900092E00E94120683E592E00197F1F760E283
:1015A00089EA92E00E9412066091AE02606240E019
:1015B00089EA92E00E942B0684E08093AF0240E02B
:1015C0006CE089EA92E00E942B060E94420682E0CB
:1015D0008093B00240E066E089EA92E00E942B0628
:1015E00040E062E089EA92E00E942B068BE39FE1F3
:1015F0000197F1F788E08093B40260E089EA92E015
:101600000E94FC0461E08CE00E94A60161E08DE094
:101610000E94A60161E08BE00E94A60160E087E0E5
:101620000E94A60160E088E00E94A60160E089E0D7
:101630000E94A60160E08AE00E94A60161E08FE0BE
:101640000E94A60161E08EE00E94A60160E08CE0AD
:101650000E94740160E08DE00E94740160E08BE004
:101660000E94740160E08FE00E94740160E08EE0EF
:101670000E94740181E3809393028FEF8093920222
:101680008BE691E00E94050660E273E080E090E066
:101690000E94A5030E9442068CE791E00E94050685
:1016A00061E082E00E944D068EE891E00E9405060E
:1016B00060E273E080E090E00E94A5030E94420691
:1016C00080E0C82E80E0D82EFF24FA940E94E60520
:1016D000809393020E947A070E94E601809392020F
:1016E0009FEC980F9430E0F5843309F076C00E94A7
:1016F000420660E080E00E944D068AE991E00E9487
:101700000506CE0101965C0110E0143081F5898157
:10171000813351F48A81823339F48B81833321F40C
:101720008C81843309F447C00E94420660E080E067
:101730000E944D068BEA91E00E94050661E080E080
:101740000E944D068AEB91E00E94050664EF71E06D
:1017500080E090E00E94A5030E944206F09292026F
:10176000C114D10409F4B2CF0E940000AFCF0E948F
:10177000E601082F882349F2F50181935F0161E0BA
:10178000812F0E944D0641E0602F89EA92E00E947D
:101790002B066CE271E080E090E00E94A50361E01E
:1017A000812F0E944D0641E06AE289EA92E00E94A0
:1017B0002B061F5FAACF0E94420660E080E00E94D5
:1017C0004D068AEC91E00E94050664EF71E080E02E
:1017D00090E00E94A5030E9442069091920280919F
:1017E000930289177CF59091920280919302891758
:1017F0000CF058C061E08CE00E94740160E08DE064
:101800000E94740161E08BE00E94A6016DE770E028
:101810008BE00E943D0361E08FE00E9474010E9412
:10182000E605809393020E947A070E94E601909158
:1018300093029817C4F6909192028917A4F68093A8
:101840009202D1CF981774F59091920280919302F1
:10185000981744F560E08CE00E94740161E08DE02F
:101860000E94740161E08BE00E94A6016DE770E0C8
:101870008BE00E943D0361E08EE00E9474010E94B3
:10188000E605809393020E947A070E94E6019091F8
:1018900093028917CCF6909192029817ACF6809338
:1018A0009202D2CF60E08CE00E94740160E08DE093
:1018B0000E94740161E08BE00E94A60160E08BE071
:1018C0000E94740160E08FE00E94740160E08EE08D
:1018D0000E94740143CF2F923F924F925F926F927A
:1018E0007F928F929F92AF92BF92CF92DF92EF92B0
:1018F000FF920F931F93CF93DF93CDB7DEB7CA1B31
:10190000DB0B0FB6F894DEBF0FBECDBF09942A885B
:10191000398848885F846E847D848C849B84AA8403
:10192000B984C884DF80EE80FD800C811B81AA8190
:10193000B981CE0FD11D0FB6F894DEBF0FBECDBF5B
:10194000ED010895EE0FFF1F0590F491E02D09942D
:101950000F931F93CF93DF938230910510F482E0B1
:1019600090E0E0912603F091270330E020E0B0E022
:10197000A0E0309799F42115310509F44AC0281BDD
:10198000390B24303105D8F58A819B8161157105A9
:1019900089F1FB0193838283FE0111C04081518153
:1019A0000281138148175907E0F04817590799F445
:1019B000109761F012960C93129713961C9332961F
:1019C000CF01DF91CF911F910F91089500932603CE
:1019D00010932703F4CF2115310551F04217530717
:1019E00038F0A901DB019A01BD01DF01F801C1CF87
:1019F000EF01F9CF9093270380932603CDCFFE010B
:101A0000E20FF31F81939193225031093983288388
:101A1000D7CF2091240330912503232B41F420912B
:101A20001501309116013093250320932403209152
:101A30001301309114012115310541F42DB73EB742
:101A40004091170150911801241B350BE09124039C
:101A5000F0912503E217F307A0F42E1B3F0B281784
:101A6000390778F0AC014E5F5F4F2417350748F017
:101A70004E0F5F1F5093250340932403819391934E
:101A80009FCFF0E0E0E09CCFCF93DF930097E9F0A9
:101A9000FC01329713821282A0912603B091270392
:101AA000ED0130E020E01097A1F420813181820F18
:101AB000931F20912403309125032817390709F03B
:101AC00061C0F0932503E0932403DF91CF91089543
:101AD000EA01CE17DF07E8F54A815B819E014115D7
:101AE0005105B1F7E901FB83EA8349915991C40F8C
:101AF000D51FEC17FD0761F4808191810296840F58
:101B0000951FE90199838883828193819B838A83CE
:101B1000F0E0E0E012968D919C9113970097B9F553
:101B20002D913C911197CD010296820F931F209128
:101B30002403309125032817390739F6309751F5DA
:101B40001092270310922603B0932503A093240339
:101B5000BCCFD383C28340815181840F951FC817A6
:101B6000D90761F44E5F5F4F88819981480F591FF3
:101B7000518340838A819B81938382832115310520
:101B800009F0B0CFF0932703E09326039ECFFD0129
:101B9000DC01C0CF13821282D7CFB0E0A0E0E3ED2A
:101BA000FDE00C946D0C8C01009751F4CB010E9468
:101BB000A80C8C01C801CDB7DEB7E0E10C94890C0C
:101BC000FC01E60FF71F9C0122503109E217F307D1
:101BD00008F49DC0D901CD91DC911197C617D707A4
:101BE00098F0C530D10530F3CE01049786179707DA
:101BF00008F3C61BD70B2297C193D1936D937C93A7
:101C0000CF010E94440DD6CF5B01AC1ABD0A4C0136
:101C10008C0E9D1EA0912603B0912703512C412CC0
:101C2000F12CE12C109731F580912403909125033C
:101C30008815990509F05CC04616570608F058C08B
:101C40008091130190911401009741F48DB79EB7D4
:101C50004091170150911801841B950BE817F90763
:101C600008F055C0F0932503E0932403F901718334
:101C70006083A0CF8D919C91119712966C901297D2
:101C800013967C901397A815B90559F56C0142E09D
:101C9000C40ED11CCA14DB0420F1AC014A195B0943
:101CA000DA011296159780F0628273825183408325
:101CB000D9016D937C93E114F10471F0D70113966F
:101CC000FC93EE93129776CF22968C0F9D1FF9010D
:101CD00091838083F301EFCFF0932703E0932603F2
:101CE00069CF4816590608F42C017D01D3019ACF1B
:101CF000CB010E94A80C7C01009749F0AE01B8010D
:101D00000E948A0EC8010E94440D870153CF10E043
:101D100000E050CFFB01DC0102C001900D92415068
:101D20005040D8F70895FB01DC0101900D9200208E
:081D3000E1F70895F894FFCFDC
:101D380006050403020100313233343536373839A9
:101D48002A302300002803800000004000140054BB
:101D58000000000000CD04A004E305760499048681
:101D6800047704000000008006D903E3050F04008F
:101D7800000000E201A201710161752000566F7533
:101D880073206574657320006572206574616765EA
:101D980000656D652065746167650050726F6A65DE
:101DA800637420736572637569742000204D6168DF
:101DB8006D6F756469202B2054616B6920002020A9
:101DC800202053454D3231202000536169736972D8
:101DD80065206D6F7420706173730057726F6E6742
:101DE8002050617373776F726400726572657175E4
:101DF80065737420666C6F6F720041757468656EE8
:081E08007469636174656400F4
:00000001FF
